:100000000C9434000C9446000C9446000C9446006A
:100010000C9446000C9446000C9446000C94460048
:100020000C9446000C9446000C9446000C94460038
:100030000C9446000C9446000C9446000C94460028
:100040000C9446000C9446000C947C010C944600E1
:100050000C9446000C9446000C9446000C94460008
:100060000C9446000C94460011241FBECFEFD8E03C
:10007000DEBFCDBF21E0A0E0B1E001C01D92A831FC
:10008000B207E1F70E9460020C94C0020C940000D9
:10009000982F907F9BB959985A985B9AEFE3FCE9A7
:1000A0003197F1F700C000005B98EFE3FCE931976E
:1000B000F1F700C00000F0E18F9FC00111248BB95F
:1000C00059985A985B9A8FE39CE90197F1F700C021
:1000D00000005B98EFE3FCE93197F1F700C0000006
:1000E0000895982F907F9BB9599A5A985B9AEFE39D
:1000F000FCE93197F1F700C000005B98EFE3FCE901
:100100003197F1F700C00000F0E18F9FC00111248A
:100110008BB9599A5A985B9A8FE39CE90197F1F74A
:1001200000C000005B98EFE3FCE93197F1F700C0F5
:100130000000089582E00E94480088E20E94480082
:100140008EE00E94480081E00E9448000895CF930D
:1001500080E80E944800C0E180E20E947100C15026
:10016000D9F780E80E94480081E40E94710082E58E
:100170000E94710085E40E94710081E40E94710078
:1001800080E20E94710081E30E947100CF91089586
:10019000CF9380E80E944800C0E180E20E94710095
:1001A000C150D9F780E80E94480081E40E947100A4
:1001B00082E50E94710085E40E94710081E40E9442
:1001C000710080E20E94710082E30E947100CF9171
:1001D000089580E80E94480083E50E94710084E54C
:1001E0000E94710081E40E9471008EE40E947100FF
:1001F00084E40E94710080E20E94710082E40E9407
:10020000710089E50E9471008AE30E9471000895DF
:10021000CF9380EC0E944800C0E180E20E94710010
:10022000C150D9F780EC0E9448008EE40E94710012
:100230008FE40E94710080E20E94710086E50E94B6
:10024000710089E40E94710083E50E94710089E4D5
:100250000E94710084E50E9471008FE40E94710089
:1002600082E50E94710083E50E947100CF9108959C
:1002700083E40E9471008FE40E94710085E50E9472
:1002800071008EE40E94710084E50E9471008AE38F
:100290000E9471000895CF93DF9380EC0E94480084
:1002A000C0E180E20E947100C150D9F780EC0E9449
:1002B00048000E943801C4E0D1E08A81805D0E943C
:1002C00071008881805D0E947100DF91CF91089557
:1002D0001092C50087E68093C40086E08093C20038
:1002E00080E98093C1000895E0ECF0E080818823EC
:1002F000ECF78091C60008951F920F920FB60F92EF
:1003000011242F933F934F935F936F937F938F931A
:100310009F93AF93BF93CF93DF93EF93FF930E948D
:100320007401C82F0E947401D82F0E94740190E0BC
:100330002D2F30E02C0F311D8217930709F065C077
:10034000C43431F4D131A9F5409A0E94A70031C0DC
:10035000C53539F4D13109F058C0419A0E94C8001E
:1003600054C0C33331F5D13109F04FC0809102013F
:1003700090910301019690930301809302012FEF66
:1003800089E698E1215080409040E1F700C00000EC
:100390008091020190910301E4E0F1E06AE070E0F5
:1003A0000E94980291838083738362830E944B0131
:1003B0002CC0C23251F5D13141F5809102019091AA
:1003C000030118161906FCF401979093030180931A
:1003D00002012FEF89E698E1215080409040E1F73B
:1003E00000C000008091020190910301E4E0F1E07F
:1003F0006AE070E00E949802918380837383628335
:100400000E944B0102C00E940801FF91EF91DF9111
:10041000CF91BF91AF919F918F917F916F915F919C
:100420004F913F912F910F900FBE0F901F901895F5
:10043000CF93DF931F92CDB7DEB7FC01698323B161
:10044000998180819223981791F02FEF80E792E0B5
:10045000215080409040E1F700C0000083B19981B5
:1004600098238081981729F09083892F03C080E01A
:1004700001C080E00F90DF91CF91089521982298DC
:1004800085B1866085B9089562E081E091E00E94BF
:100490001802089564E080E091E00E941802089537
:1004A00060E081E091E00E94180208958EEF8AB921
:1004B0008FEF87B988B978940E943E0250980895CA
:1004C0000E9456020E9468010E949A000E94E90060
:1004D000D1E0C2E00E944402882351F088B18D2708
:1004E00088B9409B03C00E94A70002C00E94E90097
:1004F0000E944A02882351F088B18C2788B9419B19
:1005000003C00E94C80002C00E94E9000E9450027D
:10051000882319F088B10E94E9008091020190912E
:1005200003011816190614F4429AD4CF4298D2CF78
:1005300097FB072E16F4009407D077FD09D00E9490
:10054000AC0207FC05D03EF4909581959F4F08952D
:10055000709561957F4F0895AA1BBB1B51E107C0A1
:10056000AA1FBB1FA617B70710F0A61BB70B881F43
:10057000991F5A95A9F780959095BC01CD010895D2
:04058000F894FFCF1D
:00000001FF
