S018000074657374207472616E736D69747465722E737265636F
S11300000C9434000C943E000C943E000C943E007E
S11300100C943E000C943E000C943E000C943E0064
S11300200C943E000C943E000C943E000C943E0054
S11300300C943E000C943E000C943E000C943E0044
S11300400C943E000C943E000C943E000C943E0034
S11300500C943E000C943E000C943E000C943E0024
S11300600C943E000C943E0011241FBECFEFD8E048
S1130070DEBFCDBF0E9497000C94D0000C9400000A
S11300801092C50087E68093C40086E08093C20086
S113009088E08093C1000895E0ECF0E0908195FF42
S11300A0FDCF8093C6000895CF93DF93D82FC62F3A
S11300B08AEA0E944C008D2F0E944C008C2F0E94D3
S11300C04C008D2F8C0F0E944C00DF91CF9108952E
S11300D0309904C086B180958170089580E00895B8
S11300E0319906C086B18695817091E0892708957B
S11300F080E00895199906C083B18695817091E0D6
S11301008927089580E008951A9907C083B182FB76
S1130110992790F981E08927089580E008958FEF69
S113012087B984B9389839982198229808950E94FB
S113013040000E948F000E946800882329F061E13A
S113014084E40E94540004C060E084E40E945400EB
S11301500E947000882329F061E185E50E94540023
S113016004C060E085E50E9454000E947A00882360
S113017029F061E183E30E94540004C060E083E35A
S11301800E9454000E948400882329F061E182E2E5
S11301900E945400D0CF60E082E20E945400CBCF92
S10701A0F894FFCFFD
S9030000FC
